{
  "contractName": "ProductVerification",
  "abi": [
    {
      "inputs": [],
      "stateMutability": "nonpayable",
      "type": "constructor"
    },
    {
      "anonymous": false,
      "inputs": [
        {
          "indexed": false,
          "internalType": "string",
          "name": "reason",
          "type": "string"
        }
      ],
      "name": "ErrorLogging",
      "type": "event"
    },
    {
      "anonymous": false,
      "inputs": [
        {
          "indexed": false,
          "internalType": "string",
          "name": "reason",
          "type": "string"
        }
      ],
      "name": "ErrorLoggingWhileUpdating",
      "type": "event"
    },
    {
      "inputs": [
        {
          "internalType": "uint256",
          "name": "",
          "type": "uint256"
        },
        {
          "internalType": "uint256",
          "name": "",
          "type": "uint256"
        }
      ],
      "name": "products",
      "outputs": [
        {
          "internalType": "string",
          "name": "name",
          "type": "string"
        },
        {
          "internalType": "uint256",
          "name": "manufacturingDate",
          "type": "uint256"
        },
        {
          "internalType": "uint256",
          "name": "transferDate",
          "type": "uint256"
        },
        {
          "internalType": "uint256",
          "name": "expiryDate",
          "type": "uint256"
        },
        {
          "internalType": "string",
          "name": "currentOwner",
          "type": "string"
        },
        {
          "internalType": "string",
          "name": "OwnerlicenseNumber",
          "type": "string"
        },
        {
          "internalType": "address",
          "name": "currentOwnerHash",
          "type": "address"
        },
        {
          "internalType": "string",
          "name": "MedicineID",
          "type": "string"
        },
        {
          "internalType": "string",
          "name": "qrCode",
          "type": "string"
        }
      ],
      "stateMutability": "view",
      "type": "function",
      "constant": true
    },
    {
      "inputs": [
        {
          "internalType": "string",
          "name": "_name",
          "type": "string"
        },
        {
          "internalType": "uint256",
          "name": "_manufacturingDate",
          "type": "uint256"
        },
        {
          "internalType": "uint256",
          "name": "_transferDate",
          "type": "uint256"
        },
        {
          "internalType": "uint256",
          "name": "_expiryDate",
          "type": "uint256"
        },
        {
          "internalType": "string",
          "name": "_currentOwner",
          "type": "string"
        },
        {
          "internalType": "string",
          "name": "_licenseNumber",
          "type": "string"
        },
        {
          "internalType": "string",
          "name": "_qrCode",
          "type": "string"
        },
        {
          "internalType": "string",
          "name": "_medicineID",
          "type": "string"
        },
        {
          "internalType": "address",
          "name": "_currentOwnerHash",
          "type": "address"
        }
      ],
      "name": "addProduct",
      "outputs": [],
      "stateMutability": "payable",
      "type": "function",
      "payable": true
    },
    {
      "inputs": [
        {
          "internalType": "uint256",
          "name": "index",
          "type": "uint256"
        },
        {
          "internalType": "uint256",
          "name": "_transferDate",
          "type": "uint256"
        },
        {
          "internalType": "string",
          "name": "_updateOwner",
          "type": "string"
        },
        {
          "internalType": "string",
          "name": "_licenseNumber",
          "type": "string"
        },
        {
          "internalType": "address",
          "name": "_updateOwnerHash",
          "type": "address"
        }
      ],
      "name": "updateOwnership",
      "outputs": [],
      "stateMutability": "payable",
      "type": "function",
      "payable": true
    },
    {
      "inputs": [],
      "name": "returnSize",
      "outputs": [
        {
          "internalType": "uint256",
          "name": "",
          "type": "uint256"
        }
      ],
      "stateMutability": "view",
      "type": "function",
      "constant": true
    },
    {
      "inputs": [
        {
          "internalType": "uint256",
          "name": "index",
          "type": "uint256"
        }
      ],
      "name": "returnDetails",
      "outputs": [
        {
          "components": [
            {
              "internalType": "string",
              "name": "name",
              "type": "string"
            },
            {
              "internalType": "uint256",
              "name": "manufacturingDate",
              "type": "uint256"
            },
            {
              "internalType": "uint256",
              "name": "transferDate",
              "type": "uint256"
            },
            {
              "internalType": "uint256",
              "name": "expiryDate",
              "type": "uint256"
            },
            {
              "internalType": "string",
              "name": "currentOwner",
              "type": "string"
            },
            {
              "internalType": "string",
              "name": "OwnerlicenseNumber",
              "type": "string"
            },
            {
              "internalType": "address",
              "name": "currentOwnerHash",
              "type": "address"
            },
            {
              "internalType": "string",
              "name": "MedicineID",
              "type": "string"
            },
            {
              "internalType": "string",
              "name": "qrCode",
              "type": "string"
            }
          ],
          "internalType": "struct Product_Lib.Product[]",
          "name": "",
          "type": "tuple[]"
        }
      ],
      "stateMutability": "view",
      "type": "function",
      "constant": true
    },
    {
      "inputs": [
        {
          "internalType": "uint256",
          "name": "index",
          "type": "uint256"
        }
      ],
      "name": "currentOwner",
      "outputs": [
        {
          "components": [
            {
              "internalType": "string",
              "name": "name",
              "type": "string"
            },
            {
              "internalType": "uint256",
              "name": "manufacturingDate",
              "type": "uint256"
            },
            {
              "internalType": "uint256",
              "name": "transferDate",
              "type": "uint256"
            },
            {
              "internalType": "uint256",
              "name": "expiryDate",
              "type": "uint256"
            },
            {
              "internalType": "string",
              "name": "currentOwner",
              "type": "string"
            },
            {
              "internalType": "string",
              "name": "OwnerlicenseNumber",
              "type": "string"
            },
            {
              "internalType": "address",
              "name": "currentOwnerHash",
              "type": "address"
            },
            {
              "internalType": "string",
              "name": "MedicineID",
              "type": "string"
            },
            {
              "internalType": "string",
              "name": "qrCode",
              "type": "string"
            }
          ],
          "internalType": "struct Product_Lib.Product",
          "name": "",
          "type": "tuple"
        }
      ],
      "stateMutability": "view",
      "type": "function",
      "constant": true
    }
  ],
  "bytecode": "0x60806040523480156200001157600080fd5b50600073ffffffffffffffffffffffffffffffffffffffff163373ffffffffffffffffffffffffffffffffffffffff160362000084576040517f08c379a00000000000000000000000000000000000000000000000000000000081526004016200007b9062000136565b60405180910390fd5b33600160006101000a81548173ffffffffffffffffffffffffffffffffffffffff021916908373ffffffffffffffffffffffffffffffffffffffff160217905550620186a060008190555062000158565b600082825260208201905092915050565b7f6e6f2d6f776e65722d70726f7669646564000000000000000000000000000000600082015250565b60006200011e601183620000d5565b91506200012b82620000e6565b602082019050919050565b6000602082019050818103600083015262000151816200010f565b9050919050565b61331b80620001686000396000f3fe6080604052600436106100555760003560e01c806347cb00e71461005a5780635a19cc2e1461007657806396eaede7146100b3578063a590fbdb146100cf578063def2a2f914610114578063e54511031461013f575b600080fd5b610074600480360381019061006f919061187d565b61017c565b005b34801561008257600080fd5b5061009d60048036038101906100989190611930565b61084e565b6040516100aa9190611b9d565b60405180910390f35b6100cd60048036038101906100c89190611bbf565b610c0f565b005b3480156100db57600080fd5b506100f660048036038101906100f19190611d15565b610ea8565b60405161010b99989796959493929190611dbd565b60405180910390f35b34801561012057600080fd5b506101296111db565b6040516101369190611e6d565b60405180910390f35b34801561014b57600080fd5b5061016660048036038101906101619190611930565b6111e4565b6040516101739190611f69565b60405180910390f35b600060026000878152602001908152602001600020805480602002602001604051908101604052809291908181526020016000905b828210156105325783829060005260206000209060090201604051806101200160405290816000820180546101e590611fba565b80601f016020809104026020016040519081016040528092919081815260200182805461021190611fba565b801561025e5780601f106102335761010080835404028352916020019161025e565b820191906000526020600020905b81548152906001019060200180831161024157829003601f168201915b5050505050815260200160018201548152602001600282015481526020016003820154815260200160048201805461029590611fba565b80601f01602080910402602001604051908101604052809291908181526020018280546102c190611fba565b801561030e5780601f106102e35761010080835404028352916020019161030e565b820191906000526020600020905b8154815290600101906020018083116102f157829003601f168201915b5050505050815260200160058201805461032790611fba565b80601f016020809104026020016040519081016040528092919081815260200182805461035390611fba565b80156103a05780601f10610375576101008083540402835291602001916103a0565b820191906000526020600020905b81548152906001019060200180831161038357829003601f168201915b505050505081526020016006820160009054906101000a900473ffffffffffffffffffffffffffffffffffffffff1673ffffffffffffffffffffffffffffffffffffffff1673ffffffffffffffffffffffffffffffffffffffff16815260200160078201805461040f90611fba565b80601f016020809104026020016040519081016040528092919081815260200182805461043b90611fba565b80156104885780601f1061045d57610100808354040283529160200191610488565b820191906000526020600020905b81548152906001019060200180831161046b57829003601f168201915b505050505081526020016008820180546104a190611fba565b80601f01602080910402602001604051908101604052809291908181526020018280546104cd90611fba565b801561051a5780601f106104ef5761010080835404028352916020019161051a565b820191906000526020600020905b8154815290600101906020018083116104fd57829003601f168201915b505050505081525050815260200190600101906101b1565b505050509050600060405161054690611613565b604051809103906000f080158015610562573d6000803e3d6000fd5b5090508073ffffffffffffffffffffffffffffffffffffffff16634851df60836040518263ffffffff1660e01b815260040161059e9190611b9d565b60006040518083038186803b1580156105b657600080fd5b505afa9250505080156105c7575060015b610640576105d3611ff8565b806308c379a00361062f57506105e761201a565b806105f25750610631565b7f614bff9c72d0eafafa0ec68b42e972173e16062f1c63e16ee4425368f37081548160405161062191906120aa565b60405180910390a15061063b565b505b3d6000803e3d6000fd5b610845565b6002600088815260200190815260200160002060405180610120016040528084600081518110610673576106726120cc565b5b602002602001015160000151815260200184600081518110610698576106976120cc565b5b6020026020010151602001518152602001888152602001846000815181106106c3576106c26120cc565b5b60200260200101516060015181526020018781526020018681526020018573ffffffffffffffffffffffffffffffffffffffff168152602001846000815181106107105761070f6120cc565b5b602002602001015160e00151815260200184600081518110610735576107346120cc565b5b602002602001015161010001518152509080600181540180825580915050600190039060005260206000209060090201600090919091909150600082015181600001908161078391906122a7565b5060208201518160010155604082015181600201556060820151816003015560808201518160040190816107b791906122a7565b5060a08201518160050190816107cd91906122a7565b5060c08201518160060160006101000a81548173ffffffffffffffffffffffffffffffffffffffff021916908373ffffffffffffffffffffffffffffffffffffffff16021790555060e082015181600701908161082a91906122a7565b5061010082015181600801908161084191906122a7565b5050505b50505050505050565b606060026000838152602001908152602001600020805480602002602001604051908101604052809291908181526020016000905b82821015610c045783829060005260206000209060090201604051806101200160405290816000820180546108b790611fba565b80601f01602080910402602001604051908101604052809291908181526020018280546108e390611fba565b80156109305780601f1061090557610100808354040283529160200191610930565b820191906000526020600020905b81548152906001019060200180831161091357829003601f168201915b5050505050815260200160018201548152602001600282015481526020016003820154815260200160048201805461096790611fba565b80601f016020809104026020016040519081016040528092919081815260200182805461099390611fba565b80156109e05780601f106109b5576101008083540402835291602001916109e0565b820191906000526020600020905b8154815290600101906020018083116109c357829003601f168201915b505050505081526020016005820180546109f990611fba565b80601f0160208091040260200160405190810160405280929190818152602001828054610a2590611fba565b8015610a725780601f10610a4757610100808354040283529160200191610a72565b820191906000526020600020905b815481529060010190602001808311610a5557829003601f168201915b505050505081526020016006820160009054906101000a900473ffffffffffffffffffffffffffffffffffffffff1673ffffffffffffffffffffffffffffffffffffffff1673ffffffffffffffffffffffffffffffffffffffff168152602001600782018054610ae190611fba565b80601f0160208091040260200160405190810160405280929190818152602001828054610b0d90611fba565b8015610b5a5780601f10610b2f57610100808354040283529160200191610b5a565b820191906000526020600020905b815481529060010190602001808311610b3d57829003601f168201915b50505050508152602001600882018054610b7390611fba565b80601f0160208091040260200160405190810160405280929190818152602001828054610b9f90611fba565b8015610bec5780601f10610bc157610100808354040283529160200191610bec565b820191906000526020600020905b815481529060010190602001808311610bcf57829003601f168201915b50505050508152505081526020019060010190610883565b505050509050919050565b6000604051610c1d90611620565b604051809103906000f080158015610c39573d6000803e3d6000fd5b5090508073ffffffffffffffffffffffffffffffffffffffff16631502cf0b60026000805481526020019081526020016000206040518263ffffffff1660e01b8152600401610c889190612626565b60006040518083038186803b158015610ca057600080fd5b505afa925050508015610cb1575060015b610d2a57610cbd611ff8565b806308c379a003610d195750610cd161201a565b80610cdc5750610d1b565b7fdcbe72357183be3854887085e70fd914c4c1733a94106878f48e8ba069d8fabc81604051610d0b91906120aa565b60405180910390a150610d25565b505b3d6000803e3d6000fd5b610e9c565b60026000805481526020019081526020016000206040518061012001604052808c81526020018b81526020018a81526020018981526020018881526020018781526020018473ffffffffffffffffffffffffffffffffffffffff1681526020018581526020018681525090806001815401808255809150506001900390600052602060002090600902016000909190919091506000820151816000019081610dd291906122a7565b506020820151816001015560408201518160020155606082015181600301556080820151816004019081610e0691906122a7565b5060a0820151816005019081610e1c91906122a7565b5060c08201518160060160006101000a81548173ffffffffffffffffffffffffffffffffffffffff021916908373ffffffffffffffffffffffffffffffffffffffff16021790555060e0820151816007019081610e7991906122a7565b50610100820151816008019081610e9091906122a7565b505050610e9b6115fa565b5b50505050505050505050565b60026020528160005260406000208181548110610ec457600080fd5b906000526020600020906009020160009150915050806000018054610ee890611fba565b80601f0160208091040260200160405190810160405280929190818152602001828054610f1490611fba565b8015610f615780601f10610f3657610100808354040283529160200191610f61565b820191906000526020600020905b815481529060010190602001808311610f4457829003601f168201915b505050505090806001015490806002015490806003015490806004018054610f8890611fba565b80601f0160208091040260200160405190810160405280929190818152602001828054610fb490611fba565b80156110015780601f10610fd657610100808354040283529160200191611001565b820191906000526020600020905b815481529060010190602001808311610fe457829003601f168201915b50505050509080600501805461101690611fba565b80601f016020809104026020016040519081016040528092919081815260200182805461104290611fba565b801561108f5780601f106110645761010080835404028352916020019161108f565b820191906000526020600020905b81548152906001019060200180831161107257829003601f168201915b5050505050908060060160009054906101000a900473ffffffffffffffffffffffffffffffffffffffff16908060070180546110ca90611fba565b80601f01602080910402602001604051908101604052809291908181526020018280546110f690611fba565b80156111435780601f1061111857610100808354040283529160200191611143565b820191906000526020600020905b81548152906001019060200180831161112657829003601f168201915b50505050509080600801805461115890611fba565b80601f016020809104026020016040519081016040528092919081815260200182805461118490611fba565b80156111d15780601f106111a6576101008083540402835291602001916111d1565b820191906000526020600020905b8154815290600101906020018083116111b457829003601f168201915b5050505050905089565b60008054905090565b6111ec61162d565b600060026000848152602001908152602001600020805480602002602001604051908101604052809291908181526020016000905b828210156115a257838290600052602060002090600902016040518061012001604052908160008201805461125590611fba565b80601f016020809104026020016040519081016040528092919081815260200182805461128190611fba565b80156112ce5780601f106112a3576101008083540402835291602001916112ce565b820191906000526020600020905b8154815290600101906020018083116112b157829003601f168201915b5050505050815260200160018201548152602001600282015481526020016003820154815260200160048201805461130590611fba565b80601f016020809104026020016040519081016040528092919081815260200182805461133190611fba565b801561137e5780601f106113535761010080835404028352916020019161137e565b820191906000526020600020905b81548152906001019060200180831161136157829003601f168201915b5050505050815260200160058201805461139790611fba565b80601f01602080910402602001604051908101604052809291908181526020018280546113c390611fba565b80156114105780601f106113e557610100808354040283529160200191611410565b820191906000526020600020905b8154815290600101906020018083116113f357829003601f168201915b505050505081526020016006820160009054906101000a900473ffffffffffffffffffffffffffffffffffffffff1673ffffffffffffffffffffffffffffffffffffffff1673ffffffffffffffffffffffffffffffffffffffff16815260200160078201805461147f90611fba565b80601f01602080910402602001604051908101604052809291908181526020018280546114ab90611fba565b80156114f85780601f106114cd576101008083540402835291602001916114f8565b820191906000526020600020905b8154815290600101906020018083116114db57829003601f168201915b5050505050815260200160088201805461151190611fba565b80601f016020809104026020016040519081016040528092919081815260200182805461153d90611fba565b801561158a5780601f1061155f5761010080835404028352916020019161158a565b820191906000526020600020905b81548152906001019060200180831161156d57829003601f168201915b50505050508152505081526020019060010190611221565b505050509050600081519050600081146115e657816001826115c49190612677565b815181106115d5576115d46120cc565b5b6020026020010151925050506115f5565b6115ee61162d565b8093505050505b919050565b60008081548092919061160c906126ab565b9190505550565b6105f9806126f483390190565b6105f980612ced83390190565b604051806101200160405280606081526020016000815260200160008152602001600081526020016060815260200160608152602001600073ffffffffffffffffffffffffffffffffffffffff16815260200160608152602001606081525090565b6000604051905090565b600080fd5b600080fd5b6000819050919050565b6116b6816116a3565b81146116c157600080fd5b50565b6000813590506116d3816116ad565b92915050565b600080fd5b600080fd5b6000601f19601f8301169050919050565b7f4e487b7100000000000000000000000000000000000000000000000000000000600052604160045260246000fd5b61172c826116e3565b810181811067ffffffffffffffff8211171561174b5761174a6116f4565b5b80604052505050565b600061175e61168f565b905061176a8282611723565b919050565b600067ffffffffffffffff82111561178a576117896116f4565b5b611793826116e3565b9050602081019050919050565b82818337600083830152505050565b60006117c26117bd8461176f565b611754565b9050828152602081018484840111156117de576117dd6116de565b5b6117e98482856117a0565b509392505050565b600082601f830112611806576118056116d9565b5b81356118168482602086016117af565b91505092915050565b600073ffffffffffffffffffffffffffffffffffffffff82169050919050565b600061184a8261181f565b9050919050565b61185a8161183f565b811461186557600080fd5b50565b60008135905061187781611851565b92915050565b600080600080600060a0868803121561189957611898611699565b5b60006118a7888289016116c4565b95505060206118b8888289016116c4565b945050604086013567ffffffffffffffff8111156118d9576118d861169e565b5b6118e5888289016117f1565b935050606086013567ffffffffffffffff8111156119065761190561169e565b5b611912888289016117f1565b925050608061192388828901611868565b9150509295509295909350565b60006020828403121561194657611945611699565b5b6000611954848285016116c4565b91505092915050565b600081519050919050565b600082825260208201905092915050565b6000819050602082019050919050565b600081519050919050565b600082825260208201905092915050565b60005b838110156119c35780820151818401526020810190506119a8565b60008484015250505050565b60006119da82611989565b6119e48185611994565b93506119f48185602086016119a5565b6119fd816116e3565b840191505092915050565b611a11816116a3565b82525050565b611a208161183f565b82525050565b6000610120830160008301518482036000860152611a4482826119cf565b9150506020830151611a596020860182611a08565b506040830151611a6c6040860182611a08565b506060830151611a7f6060860182611a08565b5060808301518482036080860152611a9782826119cf565b91505060a083015184820360a0860152611ab182826119cf565b91505060c0830151611ac660c0860182611a17565b5060e083015184820360e0860152611ade82826119cf565b915050610100830151848203610100860152611afa82826119cf565b9150508091505092915050565b6000611b138383611a26565b905092915050565b6000602082019050919050565b6000611b338261195d565b611b3d8185611968565b935083602082028501611b4f85611979565b8060005b85811015611b8b5784840389528151611b6c8582611b07565b9450611b7783611b1b565b925060208a01995050600181019050611b53565b50829750879550505050505092915050565b60006020820190508181036000830152611bb78184611b28565b905092915050565b60008060008060008060008060006101208a8c031215611be257611be1611699565b5b60008a013567ffffffffffffffff811115611c0057611bff61169e565b5b611c0c8c828d016117f1565b9950506020611c1d8c828d016116c4565b9850506040611c2e8c828d016116c4565b9750506060611c3f8c828d016116c4565b96505060808a013567ffffffffffffffff811115611c6057611c5f61169e565b5b611c6c8c828d016117f1565b95505060a08a013567ffffffffffffffff811115611c8d57611c8c61169e565b5b611c998c828d016117f1565b94505060c08a013567ffffffffffffffff811115611cba57611cb961169e565b5b611cc68c828d016117f1565b93505060e08a013567ffffffffffffffff811115611ce757611ce661169e565b5b611cf38c828d016117f1565b925050610100611d058c828d01611868565b9150509295985092959850929598565b60008060408385031215611d2c57611d2b611699565b5b6000611d3a858286016116c4565b9250506020611d4b858286016116c4565b9150509250929050565b600082825260208201905092915050565b6000611d7182611989565b611d7b8185611d55565b9350611d8b8185602086016119a5565b611d94816116e3565b840191505092915050565b611da8816116a3565b82525050565b611db78161183f565b82525050565b6000610120820190508181036000830152611dd8818c611d66565b9050611de7602083018b611d9f565b611df4604083018a611d9f565b611e016060830189611d9f565b8181036080830152611e138188611d66565b905081810360a0830152611e278187611d66565b9050611e3660c0830186611dae565b81810360e0830152611e488185611d66565b9050818103610100830152611e5d8184611d66565b90509a9950505050505050505050565b6000602082019050611e826000830184611d9f565b92915050565b6000610120830160008301518482036000860152611ea682826119cf565b9150506020830151611ebb6020860182611a08565b506040830151611ece6040860182611a08565b506060830151611ee16060860182611a08565b5060808301518482036080860152611ef982826119cf565b91505060a083015184820360a0860152611f1382826119cf565b91505060c0830151611f2860c0860182611a17565b5060e083015184820360e0860152611f4082826119cf565b915050610100830151848203610100860152611f5c82826119cf565b9150508091505092915050565b60006020820190508181036000830152611f838184611e88565b905092915050565b7f4e487b7100000000000000000000000000000000000000000000000000000000600052602260045260246000fd5b60006002820490506001821680611fd257607f821691505b602082108103611fe557611fe4611f8b565b5b50919050565b60008160e01c9050919050565b600060033d11156120175760046000803e612014600051611feb565b90505b90565b600060443d106120a75761202c61168f565b60043d036004823e80513d602482011167ffffffffffffffff821117156120545750506120a7565b808201805167ffffffffffffffff81111561207257505050506120a7565b80602083010160043d03850181111561208f5750505050506120a7565b61209e82602001850186611723565b82955050505050505b90565b600060208201905081810360008301526120c48184611d66565b905092915050565b7f4e487b7100000000000000000000000000000000000000000000000000000000600052603260045260246000fd5b60008190508160005260206000209050919050565b60006020601f8301049050919050565b600082821b905092915050565b60006008830261215d7fffffffffffffffffffffffffffffffffffffffffffffffffffffffffffffffff82612120565b6121678683612120565b95508019841693508086168417925050509392505050565b6000819050919050565b60006121a461219f61219a846116a3565b61217f565b6116a3565b9050919050565b6000819050919050565b6121be83612189565b6121d26121ca826121ab565b84845461212d565b825550505050565b600090565b6121e76121da565b6121f28184846121b5565b505050565b5b818110156122165761220b6000826121df565b6001810190506121f8565b5050565b601f82111561225b5761222c816120fb565b61223584612110565b81016020851015612244578190505b61225861225085612110565b8301826121f7565b50505b505050565b600082821c905092915050565b600061227e60001984600802612260565b1980831691505092915050565b6000612297838361226d565b9150826002028217905092915050565b6122b082611989565b67ffffffffffffffff8111156122c9576122c86116f4565b5b6122d38254611fba565b6122de82828561221a565b600060209050601f83116001811461231157600084156122ff578287015190505b612309858261228b565b865550612371565b601f19841661231f866120fb565b60005b8281101561234757848901518255600182019150602085019450602081019050612322565b868310156123645784890151612360601f89168261226d565b8355505b6001600288020188555050505b505050505050565b600081549050919050565b60008190508160005260206000209050919050565b600081546123a681611fba565b6123b08186611994565b945060018216600081146123cb57600181146123e157612414565b60ff198316865281151560200286019350612414565b6123ea856120fb565b60005b8381101561240c578154818901526001820191506020810190506123ed565b808801955050505b50505092915050565b60008160001c9050919050565b6000819050919050565b60006124476124428361241d565b61242a565b9050919050565b600073ffffffffffffffffffffffffffffffffffffffff82169050919050565b600061248161247c8361241d565b61244e565b9050919050565b60006101208301600080840185830360008701526124a68382612399565b925050600184015490506124b981612434565b6124c66020870182611a08565b50600284015490506124d781612434565b6124e46040870182611a08565b50600384015490506124f581612434565b6125026060870182611a08565b506004840185830360808701526125198382612399565b9250506005840185830360a08701526125328382612399565b925050600684015490506125458161246e565b61255260c0870182611a17565b506007840185830360e08701526125698382612399565b925050600884018583036101008701526125838382612399565b925050819250505092915050565b600061259d8383612488565b905092915050565b6000600982019050919050565b60006125bd82612379565b6125c78185611968565b9350836020820285016125d985612384565b8060005b85811015612614578484038952816125f58582612591565b9450612600836125a5565b925060208a019950506001810190506125dd565b50829750879550505050505092915050565b6000602082019050818103600083015261264081846125b2565b905092915050565b7f4e487b7100000000000000000000000000000000000000000000000000000000600052601160045260246000fd5b6000612682826116a3565b915061268d836116a3565b92508282039050818111156126a5576126a4612648565b5b92915050565b60006126b6826116a3565b91507fffffffffffffffffffffffffffffffffffffffffffffffffffffffffffffffff82036126e8576126e7612648565b5b60018201905091905056fe608060405234801561001057600080fd5b506105d9806100206000396000f3fe608060405234801561001057600080fd5b506004361061002b5760003560e01c80634851df6014610030575b600080fd5b61004a600480360381019061004591906104dd565b61004c565b005b6000815103610090576040517f08c379a000000000000000000000000000000000000000000000000000000000815260040161008790610583565b60405180910390fd5b50565b6000604051905090565b600080fd5b600080fd5b600080fd5b6000601f19601f8301169050919050565b7f4e487b7100000000000000000000000000000000000000000000000000000000600052604160045260246000fd5b6100f5826100ac565b810181811067ffffffffffffffff82111715610114576101136100bd565b5b80604052505050565b6000610127610093565b905061013382826100ec565b919050565b600067ffffffffffffffff821115610153576101526100bd565b5b602082029050602081019050919050565b600080fd5b600080fd5b600080fd5b600080fd5b600067ffffffffffffffff821115610193576101926100bd565b5b61019c826100ac565b9050602081019050919050565b82818337600083830152505050565b60006101cb6101c684610178565b61011d565b9050828152602081018484840111156101e7576101e6610173565b5b6101f28482856101a9565b509392505050565b600082601f83011261020f5761020e6100a7565b5b813561021f8482602086016101b8565b91505092915050565b6000819050919050565b61023b81610228565b811461024657600080fd5b50565b60008135905061025881610232565b92915050565b600073ffffffffffffffffffffffffffffffffffffffff82169050919050565b60006102898261025e565b9050919050565b6102998161027e565b81146102a457600080fd5b50565b6000813590506102b681610290565b92915050565b600061012082840312156102d3576102d2610169565b5b6102de61012061011d565b9050600082013567ffffffffffffffff8111156102fe576102fd61016e565b5b61030a848285016101fa565b600083015250602061031e84828501610249565b602083015250604061033284828501610249565b604083015250606061034684828501610249565b606083015250608082013567ffffffffffffffff81111561036a5761036961016e565b5b610376848285016101fa565b60808301525060a082013567ffffffffffffffff81111561039a5761039961016e565b5b6103a6848285016101fa565b60a08301525060c06103ba848285016102a7565b60c08301525060e082013567ffffffffffffffff8111156103de576103dd61016e565b5b6103ea848285016101fa565b60e08301525061010082013567ffffffffffffffff81111561040f5761040e61016e565b5b61041b848285016101fa565b6101008301525092915050565b600061043b61043684610138565b61011d565b9050808382526020820190506020840283018581111561045e5761045d610164565b5b835b818110156104a557803567ffffffffffffffff811115610483576104826100a7565b5b80860161049089826102bc565b85526020850194505050602081019050610460565b5050509392505050565b600082601f8301126104c4576104c36100a7565b5b81356104d4848260208601610428565b91505092915050565b6000602082840312156104f3576104f261009d565b5b600082013567ffffffffffffffff811115610511576105106100a2565b5b61051d848285016104af565b91505092915050565b600082825260208201905092915050565b7f54686973206974656d206973206e6f7420696e20746865204c69737400000000600082015250565b600061056d601c83610526565b915061057882610537565b602082019050919050565b6000602082019050818103600083015261059c81610560565b905091905056fea2646970667358221220f421c13cb7f475bc46b2759f506617c5f4acc9602edcfa8ab75f083bff38823264736f6c63430008130033608060405234801561001057600080fd5b506105d9806100206000396000f3fe608060405234801561001057600080fd5b506004361061002b5760003560e01c80631502cf0b14610030575b600080fd5b61004a600480360381019061004591906104dd565b61004c565b005b6000815114610090576040517f08c379a000000000000000000000000000000000000000000000000000000000815260040161008790610583565b60405180910390fd5b50565b6000604051905090565b600080fd5b600080fd5b600080fd5b6000601f19601f8301169050919050565b7f4e487b7100000000000000000000000000000000000000000000000000000000600052604160045260246000fd5b6100f5826100ac565b810181811067ffffffffffffffff82111715610114576101136100bd565b5b80604052505050565b6000610127610093565b905061013382826100ec565b919050565b600067ffffffffffffffff821115610153576101526100bd565b5b602082029050602081019050919050565b600080fd5b600080fd5b600080fd5b600080fd5b600067ffffffffffffffff821115610193576101926100bd565b5b61019c826100ac565b9050602081019050919050565b82818337600083830152505050565b60006101cb6101c684610178565b61011d565b9050828152602081018484840111156101e7576101e6610173565b5b6101f28482856101a9565b509392505050565b600082601f83011261020f5761020e6100a7565b5b813561021f8482602086016101b8565b91505092915050565b6000819050919050565b61023b81610228565b811461024657600080fd5b50565b60008135905061025881610232565b92915050565b600073ffffffffffffffffffffffffffffffffffffffff82169050919050565b60006102898261025e565b9050919050565b6102998161027e565b81146102a457600080fd5b50565b6000813590506102b681610290565b92915050565b600061012082840312156102d3576102d2610169565b5b6102de61012061011d565b9050600082013567ffffffffffffffff8111156102fe576102fd61016e565b5b61030a848285016101fa565b600083015250602061031e84828501610249565b602083015250604061033284828501610249565b604083015250606061034684828501610249565b606083015250608082013567ffffffffffffffff81111561036a5761036961016e565b5b610376848285016101fa565b60808301525060a082013567ffffffffffffffff81111561039a5761039961016e565b5b6103a6848285016101fa565b60a08301525060c06103ba848285016102a7565b60c08301525060e082013567ffffffffffffffff8111156103de576103dd61016e565b5b6103ea848285016101fa565b60e08301525061010082013567ffffffffffffffff81111561040f5761040e61016e565b5b61041b848285016101fa565b6101008301525092915050565b600061043b61043684610138565b61011d565b9050808382526020820190506020840283018581111561045e5761045d610164565b5b835b818110156104a557803567ffffffffffffffff811115610483576104826100a7565b5b80860161049089826102bc565b85526020850194505050602081019050610460565b5050509392505050565b600082601f8301126104c4576104c36100a7565b5b81356104d4848260208601610428565b91505092915050565b6000602082840312156104f3576104f261009d565b5b600082013567ffffffffffffffff811115610511576105106100a2565b5b61051d848285016104af565b91505092915050565b600082825260208201905092915050565b7f476976656e2073657269616c20494420697320616c72656164792074616b656e600082015250565b600061056d602083610526565b915061057882610537565b602082019050919050565b6000602082019050818103600083015261059c81610560565b905091905056fea264697066735822122089f91c0678f6de57bbbe92b875c87b51f339de0e6bddbbec4b60b9dda6503aad64736f6c63430008130033a264697066735822122012c8f7c1bc81b272d75076a26620fcaf220aaa761cee805f643de96ce35ddc3464736f6c63430008130033",
  "immutableReferences": {},
  "source": "//SPDX-License-Identifier: MIT\r\n\r\n\r\npragma solidity ^0.8.0;\r\n\r\nlibrary Product_Lib{\r\n  \r\n  struct Product {\r\n    string name;\r\n    uint256 manufacturingDate;\r\n    uint256 transferDate;\r\n    uint256 expiryDate;\r\n    string currentOwner;\r\n    string OwnerlicenseNumber;\r\n    address currentOwnerHash;\r\n    string MedicineID;\r\n    string qrCode;\r\n  }\r\n}\r\n\r\ncontract Product_Exist {\r\n  function checkSerialNumber(Product_Lib.Product[] memory product) public pure {\r\n    require(product.length == 0, \"Given serial ID is already taken\");\r\n  }\r\n}\r\n\r\ncontract Product_Exist_For_Updating {\r\n  function exist(Product_Lib.Product[] memory product) public pure {\r\n    require(product.length != 0, \"This item is not in the List\");\r\n  }\r\n}\r\n\r\n\r\ncontract ProductVerification { \r\n    \r\n    uint256 counter;\r\n    address ownerHash;\r\n    \r\n    constructor() public {\r\n      require(msg.sender != address(0), \"no-owner-provided\");\r\n      ownerHash = msg.sender;\r\n      counter = 100000;\r\n    }\r\n     \r\n    mapping(uint => Product_Lib.Product[]) public products;\r\n    \r\n    event ErrorLogging(string reason);\r\n    function addProduct(string memory _name, uint256 _manufacturingDate, uint256 _transferDate, uint256 _expiryDate, string memory _currentOwner, string memory _licenseNumber, string memory _qrCode,string memory _medicineID, address _currentOwnerHash ) public payable{\r\n    \r\n      Product_Exist exist = new Product_Exist();\r\n      \r\n      try exist.checkSerialNumber(products[counter]){\r\n        products[counter].push(Product_Lib.Product(_name, _manufacturingDate, _transferDate, _expiryDate, _currentOwner, _licenseNumber, _currentOwnerHash, _medicineID, _qrCode));\r\n        incrementcounter(); \r\n      } \r\n      catch Error(string memory reason){\r\n        emit  ErrorLogging(reason);\r\n      }\r\n    }\r\n    \r\n    event ErrorLoggingWhileUpdating(string reason);\r\n\r\n    function updateOwnership(uint256 index, uint256 _transferDate,string memory _updateOwner, string memory _licenseNumber, address _updateOwnerHash) public payable{\r\n      Product_Lib.Product[] memory product = products[index];\r\n      \r\n      Product_Exist_For_Updating updating_allowed = new Product_Exist_For_Updating();\r\n\r\n      try updating_allowed.exist(product){\r\n        products[index].push(Product_Lib.Product(product[0].name, product[0].manufacturingDate, _transferDate, product[0].expiryDate, _updateOwner, _licenseNumber, _updateOwnerHash, product[0].MedicineID, product[0].qrCode));\r\n      }\r\n\r\n      catch Error(string memory reason){\r\n        emit  ErrorLoggingWhileUpdating(reason);\r\n      }\r\n    }\r\n\r\n    function returnSize() public view returns(uint){\r\n      return counter;\r\n    }\r\n\r\n    function returnDetails(uint index) public view returns(Product_Lib.Product[] memory){\r\n      return products[index];\r\n    }\r\n\r\n    function currentOwner(uint index) public view returns(Product_Lib.Product memory){\r\n      Product_Lib.Product[] memory product = products[index];\r\n      uint256 len = product.length;\r\n      if(len!=0){\r\n        return product[len-1];\r\n      }else{\r\n        Product_Lib.Product memory dummyProduct;\r\n        return dummyProduct;\r\n      }\r\n    }\r\n\r\n    function incrementcounter() private{\r\n      counter++;\r\n    }\r\n}",
  "sourcePath": "C:\\Users\\Jeevak\\OneDrive\\Desktop\\health_hackers\\health_hackers\\contracts\\ProductVerification.sol",
  "compiler": {
    "name": "solc",
    "version": "0.8.19+commit.7dd6d404.Emscripten.clang"
  },
  "schemaVersion": "3.4.9",
  "updatedAt": "2023-03-18T06:53:54.034Z",
  "networkType": "ethereum",
  "devdoc": {
    "kind": "dev",
    "methods": {},
    "version": 1
  },
  "userdoc": {
    "kind": "user",
    "methods": {},
    "version": 1
  }
}